{
  "_format": "hh-sol-artifact-1",
  "contractName": "CarbonCredit",
  "sourceName": "contracts/CarbonCredit.sol",
  "abi": [
    {
      "inputs": [
        {
          "internalType": "address",
          "name": "_mockUsdcAddress",
          "type": "address"
        },
        {
          "internalType": "address",
          "name": "_initialOwner",
          "type": "address"
        },
        {
          "internalType": "uint256",
          "name": "_feePercentage",
          "type": "uint256"
        }
      ],
      "stateMutability": "nonpayable",
      "type": "constructor"
    },
    {
      "inputs": [
        {
          "internalType": "address",
          "name": "sender",
          "type": "address"
        },
        {
          "internalType": "uint256",
          "name": "balance",
          "type": "uint256"
        },
        {
          "internalType": "uint256",
          "name": "needed",
          "type": "uint256"
        },
        {
          "internalType": "uint256",
          "name": "tokenId",
          "type": "uint256"
        }
      ],
      "name": "ERC1155InsufficientBalance",
      "type": "error"
    },
    {
      "inputs": [
        {
          "internalType": "address",
          "name": "approver",
          "type": "address"
        }
      ],
      "name": "ERC1155InvalidApprover",
      "type": "error"
    },
    {
      "inputs": [
        {
          "internalType": "uint256",
          "name": "idsLength",
          "type": "uint256"
        },
        {
          "internalType": "uint256",
          "name": "valuesLength",
          "type": "uint256"
        }
      ],
      "name": "ERC1155InvalidArrayLength",
      "type": "error"
    },
    {
      "inputs": [
        {
          "internalType": "address",
          "name": "operator",
          "type": "address"
        }
      ],
      "name": "ERC1155InvalidOperator",
      "type": "error"
    },
    {
      "inputs": [
        {
          "internalType": "address",
          "name": "receiver",
          "type": "address"
        }
      ],
      "name": "ERC1155InvalidReceiver",
      "type": "error"
    },
    {
      "inputs": [
        {
          "internalType": "address",
          "name": "sender",
          "type": "address"
        }
      ],
      "name": "ERC1155InvalidSender",
      "type": "error"
    },
    {
      "inputs": [
        {
          "internalType": "address",
          "name": "operator",
          "type": "address"
        },
        {
          "internalType": "address",
          "name": "owner",
          "type": "address"
        }
      ],
      "name": "ERC1155MissingApprovalForAll",
      "type": "error"
    },
    {
      "inputs": [
        {
          "internalType": "address",
          "name": "owner",
          "type": "address"
        }
      ],
      "name": "OwnableInvalidOwner",
      "type": "error"
    },
    {
      "inputs": [
        {
          "internalType": "address",
          "name": "account",
          "type": "address"
        }
      ],
      "name": "OwnableUnauthorizedAccount",
      "type": "error"
    },
    {
      "anonymous": false,
      "inputs": [
        {
          "indexed": true,
          "internalType": "address",
          "name": "account",
          "type": "address"
        },
        {
          "indexed": true,
          "internalType": "address",
          "name": "operator",
          "type": "address"
        },
        {
          "indexed": false,
          "internalType": "bool",
          "name": "approved",
          "type": "bool"
        }
      ],
      "name": "ApprovalForAll",
      "type": "event"
    },
    {
      "anonymous": false,
      "inputs": [
        {
          "indexed": true,
          "internalType": "uint256",
          "name": "projectId",
          "type": "uint256"
        },
        {
          "indexed": false,
          "internalType": "uint256",
          "name": "amount",
          "type": "uint256"
        },
        {
          "indexed": true,
          "internalType": "address",
          "name": "owner",
          "type": "address"
        }
      ],
      "name": "CreditRetired",
      "type": "event"
    },
    {
      "anonymous": false,
      "inputs": [
        {
          "indexed": true,
          "internalType": "uint256",
          "name": "projectId",
          "type": "uint256"
        },
        {
          "indexed": false,
          "internalType": "uint256",
          "name": "amount",
          "type": "uint256"
        },
        {
          "indexed": false,
          "internalType": "uint256",
          "name": "pricePerTon",
          "type": "uint256"
        },
        {
          "indexed": true,
          "internalType": "address",
          "name": "seller",
          "type": "address"
        },
        {
          "indexed": true,
          "internalType": "address",
          "name": "buyer",
          "type": "address"
        }
      ],
      "name": "CreditTraded",
      "type": "event"
    },
    {
      "anonymous": false,
      "inputs": [
        {
          "indexed": true,
          "internalType": "address",
          "name": "previousOwner",
          "type": "address"
        },
        {
          "indexed": true,
          "internalType": "address",
          "name": "newOwner",
          "type": "address"
        }
      ],
      "name": "OwnershipTransferred",
      "type": "event"
    },
    {
      "anonymous": false,
      "inputs": [
        {
          "indexed": true,
          "internalType": "uint256",
          "name": "projectId",
          "type": "uint256"
        },
        {
          "indexed": false,
          "internalType": "string",
          "name": "name",
          "type": "string"
        },
        {
          "indexed": false,
          "internalType": "string",
          "name": "location",
          "type": "string"
        },
        {
          "indexed": false,
          "internalType": "uint256",
          "name": "totalTons",
          "type": "uint256"
        },
        {
          "indexed": false,
          "internalType": "uint256",
          "name": "pricePerTon",
          "type": "uint256"
        }
      ],
      "name": "ProjectCreated",
      "type": "event"
    },
    {
      "anonymous": false,
      "inputs": [
        {
          "indexed": true,
          "internalType": "address",
          "name": "operator",
          "type": "address"
        },
        {
          "indexed": true,
          "internalType": "address",
          "name": "from",
          "type": "address"
        },
        {
          "indexed": true,
          "internalType": "address",
          "name": "to",
          "type": "address"
        },
        {
          "indexed": false,
          "internalType": "uint256[]",
          "name": "ids",
          "type": "uint256[]"
        },
        {
          "indexed": false,
          "internalType": "uint256[]",
          "name": "values",
          "type": "uint256[]"
        }
      ],
      "name": "TransferBatch",
      "type": "event"
    },
    {
      "anonymous": false,
      "inputs": [
        {
          "indexed": true,
          "internalType": "address",
          "name": "operator",
          "type": "address"
        },
        {
          "indexed": true,
          "internalType": "address",
          "name": "from",
          "type": "address"
        },
        {
          "indexed": true,
          "internalType": "address",
          "name": "to",
          "type": "address"
        },
        {
          "indexed": false,
          "internalType": "uint256",
          "name": "id",
          "type": "uint256"
        },
        {
          "indexed": false,
          "internalType": "uint256",
          "name": "value",
          "type": "uint256"
        }
      ],
      "name": "TransferSingle",
      "type": "event"
    },
    {
      "anonymous": false,
      "inputs": [
        {
          "indexed": false,
          "internalType": "string",
          "name": "value",
          "type": "string"
        },
        {
          "indexed": true,
          "internalType": "uint256",
          "name": "id",
          "type": "uint256"
        }
      ],
      "name": "URI",
      "type": "event"
    },
    {
      "inputs": [
        {
          "internalType": "address",
          "name": "account",
          "type": "address"
        },
        {
          "internalType": "uint256",
          "name": "id",
          "type": "uint256"
        }
      ],
      "name": "balanceOf",
      "outputs": [
        {
          "internalType": "uint256",
          "name": "",
          "type": "uint256"
        }
      ],
      "stateMutability": "view",
      "type": "function"
    },
    {
      "inputs": [
        {
          "internalType": "address[]",
          "name": "accounts",
          "type": "address[]"
        },
        {
          "internalType": "uint256[]",
          "name": "ids",
          "type": "uint256[]"
        }
      ],
      "name": "balanceOfBatch",
      "outputs": [
        {
          "internalType": "uint256[]",
          "name": "",
          "type": "uint256[]"
        }
      ],
      "stateMutability": "view",
      "type": "function"
    },
    {
      "inputs": [
        {
          "internalType": "uint256",
          "name": "_projectId",
          "type": "uint256"
        },
        {
          "internalType": "uint256",
          "name": "_amount",
          "type": "uint256"
        },
        {
          "internalType": "address",
          "name": "_seller",
          "type": "address"
        }
      ],
      "name": "buyCredits",
      "outputs": [],
      "stateMutability": "nonpayable",
      "type": "function"
    },
    {
      "inputs": [
        {
          "internalType": "uint256",
          "name": "_projectId",
          "type": "uint256"
        }
      ],
      "name": "getProjectInfo",
      "outputs": [
        {
          "internalType": "string",
          "name": "name",
          "type": "string"
        },
        {
          "internalType": "string",
          "name": "location",
          "type": "string"
        },
        {
          "internalType": "uint256",
          "name": "totalTons",
          "type": "uint256"
        },
        {
          "internalType": "uint256",
          "name": "pricePerTon",
          "type": "uint256"
        }
      ],
      "stateMutability": "view",
      "type": "function"
    },
    {
      "inputs": [
        {
          "internalType": "address",
          "name": "account",
          "type": "address"
        },
        {
          "internalType": "address",
          "name": "operator",
          "type": "address"
        }
      ],
      "name": "isApprovedForAll",
      "outputs": [
        {
          "internalType": "bool",
          "name": "",
          "type": "bool"
        }
      ],
      "stateMutability": "view",
      "type": "function"
    },
    {
      "inputs": [
        {
          "internalType": "string",
          "name": "_name",
          "type": "string"
        },
        {
          "internalType": "string",
          "name": "_location",
          "type": "string"
        },
        {
          "internalType": "uint256",
          "name": "_initialSupply",
          "type": "uint256"
        },
        {
          "internalType": "uint256",
          "name": "_pricePerTon",
          "type": "uint256"
        },
        {
          "internalType": "address",
          "name": "_to",
          "type": "address"
        }
      ],
      "name": "mintNewProject",
      "outputs": [],
      "stateMutability": "nonpayable",
      "type": "function"
    },
    {
      "inputs": [],
      "name": "mockUSDC",
      "outputs": [
        {
          "internalType": "contract IERC20",
          "name": "",
          "type": "address"
        }
      ],
      "stateMutability": "view",
      "type": "function"
    },
    {
      "inputs": [],
      "name": "nextProjectId",
      "outputs": [
        {
          "internalType": "uint256",
          "name": "",
          "type": "uint256"
        }
      ],
      "stateMutability": "view",
      "type": "function"
    },
    {
      "inputs": [],
      "name": "owner",
      "outputs": [
        {
          "internalType": "address",
          "name": "",
          "type": "address"
        }
      ],
      "stateMutability": "view",
      "type": "function"
    },
    {
      "inputs": [
        {
          "internalType": "uint256",
          "name": "",
          "type": "uint256"
        }
      ],
      "name": "projectInfo",
      "outputs": [
        {
          "internalType": "string",
          "name": "name",
          "type": "string"
        },
        {
          "internalType": "string",
          "name": "location",
          "type": "string"
        },
        {
          "internalType": "uint256",
          "name": "totalTons",
          "type": "uint256"
        },
        {
          "internalType": "uint256",
          "name": "pricePerTon",
          "type": "uint256"
        }
      ],
      "stateMutability": "view",
      "type": "function"
    },
    {
      "inputs": [],
      "name": "renounceOwnership",
      "outputs": [],
      "stateMutability": "nonpayable",
      "type": "function"
    },
    {
      "inputs": [
        {
          "internalType": "uint256",
          "name": "_projectId",
          "type": "uint256"
        },
        {
          "internalType": "uint256",
          "name": "_amount",
          "type": "uint256"
        }
      ],
      "name": "retireCredits",
      "outputs": [],
      "stateMutability": "nonpayable",
      "type": "function"
    },
    {
      "inputs": [
        {
          "internalType": "address",
          "name": "from",
          "type": "address"
        },
        {
          "internalType": "address",
          "name": "to",
          "type": "address"
        },
        {
          "internalType": "uint256[]",
          "name": "ids",
          "type": "uint256[]"
        },
        {
          "internalType": "uint256[]",
          "name": "values",
          "type": "uint256[]"
        },
        {
          "internalType": "bytes",
          "name": "data",
          "type": "bytes"
        }
      ],
      "name": "safeBatchTransferFrom",
      "outputs": [],
      "stateMutability": "nonpayable",
      "type": "function"
    },
    {
      "inputs": [
        {
          "internalType": "address",
          "name": "from",
          "type": "address"
        },
        {
          "internalType": "address",
          "name": "to",
          "type": "address"
        },
        {
          "internalType": "uint256",
          "name": "id",
          "type": "uint256"
        },
        {
          "internalType": "uint256",
          "name": "value",
          "type": "uint256"
        },
        {
          "internalType": "bytes",
          "name": "data",
          "type": "bytes"
        }
      ],
      "name": "safeTransferFrom",
      "outputs": [],
      "stateMutability": "nonpayable",
      "type": "function"
    },
    {
      "inputs": [
        {
          "internalType": "address",
          "name": "operator",
          "type": "address"
        },
        {
          "internalType": "bool",
          "name": "approved",
          "type": "bool"
        }
      ],
      "name": "setApprovalForAll",
      "outputs": [],
      "stateMutability": "nonpayable",
      "type": "function"
    },
    {
      "inputs": [
        {
          "internalType": "bytes4",
          "name": "interfaceId",
          "type": "bytes4"
        }
      ],
      "name": "supportsInterface",
      "outputs": [
        {
          "internalType": "bool",
          "name": "",
          "type": "bool"
        }
      ],
      "stateMutability": "view",
      "type": "function"
    },
    {
      "inputs": [],
      "name": "tradingFeePercentage",
      "outputs": [
        {
          "internalType": "uint256",
          "name": "",
          "type": "uint256"
        }
      ],
      "stateMutability": "view",
      "type": "function"
    },
    {
      "inputs": [
        {
          "internalType": "address",
          "name": "newOwner",
          "type": "address"
        }
      ],
      "name": "transferOwnership",
      "outputs": [],
      "stateMutability": "nonpayable",
      "type": "function"
    },
    {
      "inputs": [
        {
          "internalType": "uint256",
          "name": "",
          "type": "uint256"
        }
      ],
      "name": "uri",
      "outputs": [
        {
          "internalType": "string",
          "name": "",
          "type": "string"
        }
      ],
      "stateMutability": "view",
      "type": "function"
    }
  ],
  "bytecode": "0x60a06040523480156200001157600080fd5b506040516200464738038062004647833981810160405281019062000037919062000317565b816040518060200160405280600081525062000059816200019760201b60201c565b50600073ffffffffffffffffffffffffffffffffffffffff168173ffffffffffffffffffffffffffffffffffffffff1603620000cf5760006040517f1e4fbdf7000000000000000000000000000000000000000000000000000000008152600401620000c6919062000384565b60405180910390fd5b620000e081620001ac60201b60201c565b50600073ffffffffffffffffffffffffffffffffffffffff168373ffffffffffffffffffffffffffffffffffffffff160362000153576040517f08c379a00000000000000000000000000000000000000000000000000000000081526004016200014a9062000428565b60405180910390fd5b8273ffffffffffffffffffffffffffffffffffffffff1660808173ffffffffffffffffffffffffffffffffffffffff168152505080600481905550505050620007a1565b8060029081620001a89190620006ba565b5050565b6000600360009054906101000a900473ffffffffffffffffffffffffffffffffffffffff16905081600360006101000a81548173ffffffffffffffffffffffffffffffffffffffff021916908373ffffffffffffffffffffffffffffffffffffffff1602179055508173ffffffffffffffffffffffffffffffffffffffff168173ffffffffffffffffffffffffffffffffffffffff167f8be0079c531659141344cd1fd0a4f28419497f9722a3daafe3b4186f6b6457e060405160405180910390a35050565b600080fd5b600073ffffffffffffffffffffffffffffffffffffffff82169050919050565b6000620002a48262000277565b9050919050565b620002b68162000297565b8114620002c257600080fd5b50565b600081519050620002d681620002ab565b92915050565b6000819050919050565b620002f181620002dc565b8114620002fd57600080fd5b50565b6000815190506200031181620002e6565b92915050565b60008060006060848603121562000333576200033262000272565b5b60006200034386828701620002c5565b93505060206200035686828701620002c5565b9250506040620003698682870162000300565b9150509250925092565b6200037e8162000297565b82525050565b60006020820190506200039b600083018462000373565b92915050565b600082825260208201905092915050565b7f436172626f6e4372656469743a20496e76616c6964206d6f636b20555344432060008201527f6164647265737300000000000000000000000000000000000000000000000000602082015250565b600062000410602783620003a1565b91506200041d82620003b2565b604082019050919050565b60006020820190508181036000830152620004438162000401565b9050919050565b600081519050919050565b7f4e487b7100000000000000000000000000000000000000000000000000000000600052604160045260246000fd5b7f4e487b7100000000000000000000000000000000000000000000000000000000600052602260045260246000fd5b60006002820490506001821680620004cc57607f821691505b602082108103620004e257620004e162000484565b5b50919050565b60008190508160005260206000209050919050565b60006020601f8301049050919050565b600082821b905092915050565b6000600883026200054c7fffffffffffffffffffffffffffffffffffffffffffffffffffffffffffffffff826200050d565b6200055886836200050d565b95508019841693508086168417925050509392505050565b6000819050919050565b60006200059b620005956200058f84620002dc565b62000570565b620002dc565b9050919050565b6000819050919050565b620005b7836200057a565b620005cf620005c682620005a2565b8484546200051a565b825550505050565b600090565b620005e6620005d7565b620005f3818484620005ac565b505050565b5b818110156200061b576200060f600082620005dc565b600181019050620005f9565b5050565b601f8211156200066a576200063481620004e8565b6200063f84620004fd565b810160208510156200064f578190505b620006676200065e85620004fd565b830182620005f8565b50505b505050565b600082821c905092915050565b60006200068f600019846008026200066f565b1980831691505092915050565b6000620006aa83836200067c565b9150826002028217905092915050565b620006c5826200044a565b67ffffffffffffffff811115620006e157620006e062000455565b5b620006ed8254620004b3565b620006fa8282856200061f565b600060209050601f8311600181146200073257600084156200071d578287015190505b6200072985826200069c565b86555062000799565b601f1984166200074286620004e8565b60005b828110156200076c5784890151825560018201915060208501945060208101905062000745565b868310156200078c578489015162000788601f8916826200067c565b8355505b6001600288020188555050505b505050505050565b608051613e6e620007d960003960008181610b7801528181610c5601528181610d7d01528181610e5c01526111fe0152613e6e6000f3fe608060405234801561001057600080fd5b50600436106101205760003560e01c8063a22cb465116100ad578063e985e9c511610071578063e985e9c514610308578063ee46767814610338578063f242432a14610356578063f2fde38b14610372578063fabf59681461038e57610120565b8063a22cb46514610261578063b2356ad41461027d578063b28ced6f1461029b578063c9acbcf1146102b7578063e935b7b1146102ea57610120565b80632eb2c2d6116100f45780632eb2c2d6146101d15780633ea0fb13146101ed5780634e1273f414610209578063715018a6146102395780638da5cb5b1461024357610120565b8062fdd58e1461012557806301ffc9a71461015557806302f0acea146101855780630e89341c146101a1575b600080fd5b61013f600480360381019061013a919061240c565b6103c1565b60405161014c919061245b565b60405180910390f35b61016f600480360381019061016a91906124ce565b61041b565b60405161017c9190612516565b60405180910390f35b61019f600480360381019061019a9190612677565b6104fd565b005b6101bb60048036038101906101b6919061272a565b6106f1565b6040516101c891906127d6565b60405180910390f35b6101eb60048036038101906101e69190612961565b610713565b005b61020760048036038101906102029190612a30565b6107bb565b005b610223600480360381019061021e9190612b33565b6108a8565b6040516102309190612c69565b60405180910390f35b6102416109b7565b005b61024b6109cb565b6040516102589190612c9a565b60405180910390f35b61027b60048036038101906102769190612ce1565b6109f5565b005b610285610a0b565b604051610292919061245b565b60405180910390f35b6102b560048036038101906102b09190612d21565b610a11565b005b6102d160048036038101906102cc919061272a565b611022565b6040516102e19493929190612d74565b60405180910390f35b6102f2611162565b6040516102ff919061245b565b60405180910390f35b610322600480360381019061031d9190612dc7565b611168565b60405161032f9190612516565b60405180910390f35b6103406111fc565b60405161034d9190612e66565b60405180910390f35b610370600480360381019061036b9190612e81565b611220565b005b61038c60048036038101906103879190612f18565b6112c8565b005b6103a860048036038101906103a3919061272a565b61134e565b6040516103b89493929190612d74565b60405180910390f35b600080600083815260200190815260200160002060008473ffffffffffffffffffffffffffffffffffffffff1673ffffffffffffffffffffffffffffffffffffffff16815260200190815260200160002054905092915050565b60007fd9b67a26000000000000000000000000000000000000000000000000000000007bffffffffffffffffffffffffffffffffffffffffffffffffffffffff1916827bffffffffffffffffffffffffffffffffffffffffffffffffffffffff191614806104e657507f0e89341c000000000000000000000000000000000000000000000000000000007bffffffffffffffffffffffffffffffffffffffffffffffffffffffff1916827bffffffffffffffffffffffffffffffffffffffffffffffffffffffff1916145b806104f657506104f5826114d2565b5b9050919050565b61050561153c565b60008311610548576040517f08c379a000000000000000000000000000000000000000000000000000000000815260040161053f90612fb7565b60405180910390fd5b600073ffffffffffffffffffffffffffffffffffffffff168173ffffffffffffffffffffffffffffffffffffffff16036105b7576040517f08c379a00000000000000000000000000000000000000000000000000000000081526004016105ae90613049565b60405180910390fd5b600082116105fa576040517f08c379a00000000000000000000000000000000000000000000000000000000081526004016105f1906130db565b60405180910390fd5b6000600654905060405180608001604052808781526020018681526020018581526020018481525060056000838152602001908152602001600020600082015181600001908161064a91906132fd565b50602082015181600101908161066091906132fd565b506040820151816002015560608201518160030155905050610693828286604051806020016040528060008152506115c3565b807ff33781503549b7f0a1a87baca437ca7d7700f17a38653ee622a77e4cf144c227878787876040516106c99493929190612d74565b60405180910390a2600660008154809291906106e4906133fe565b9190505550505050505050565b6060604051806060016040528060378152602001613e02603791399050919050565b600061071d61165c565b90508073ffffffffffffffffffffffffffffffffffffffff168673ffffffffffffffffffffffffffffffffffffffff161415801561076257506107608682611168565b155b156107a65780866040517fe237d92200000000000000000000000000000000000000000000000000000000815260040161079d929190613446565b60405180910390fd5b6107b38686868686611664565b505050505050565b600081116107fe576040517f08c379a00000000000000000000000000000000000000000000000000000000081526004016107f5906134e1565b60405180910390fd5b8061080933846103c1565b101561084a576040517f08c379a000000000000000000000000000000000000000000000000000000000815260040161084190613573565b60405180910390fd5b61085533838361175c565b3373ffffffffffffffffffffffffffffffffffffffff16827f2d171ea7cdc66c98fc45a3f46df038771b2784f1eaf4d164961f526a766889678360405161089c919061245b565b60405180910390a35050565b606081518351146108f457815183516040517f5b0599910000000000000000000000000000000000000000000000000000000081526004016108eb929190613593565b60405180910390fd5b6000835167ffffffffffffffff8111156109115761091061254c565b5b60405190808252806020026020018201604052801561093f5781602001602082028036833780820191505090505b50905060005b84518110156109ac5761097c610964828761180390919063ffffffff16565b610977838761181790919063ffffffff16565b6103c1565b82828151811061098f5761098e6135bc565b5b602002602001018181525050806109a5906133fe565b9050610945565b508091505092915050565b6109bf61153c565b6109c9600061182b565b565b6000600360009054906101000a900473ffffffffffffffffffffffffffffffffffffffff16905090565b610a07610a0061165c565b83836118f1565b5050565b60045481565b600073ffffffffffffffffffffffffffffffffffffffff168173ffffffffffffffffffffffffffffffffffffffff1603610a80576040517f08c379a0000000000000000000000000000000000000000000000000000000008152600401610a779061365d565b60405180910390fd5b60008211610ac3576040517f08c379a0000000000000000000000000000000000000000000000000000000008152600401610aba906134e1565b60405180910390fd5b6000600560008581526020019081526020016000206002015411610b1c576040517f08c379a0000000000000000000000000000000000000000000000000000000008152600401610b13906136ef565b60405180910390fd5b60006005600085815260200190815260200160002060030154905060008184610b45919061370f565b90506000606460045483610b59919061370f565b610b639190613780565b905060008183610b7391906137b1565b9050827f000000000000000000000000000000000000000000000000000000000000000073ffffffffffffffffffffffffffffffffffffffff1663dd62ed3e33306040518363ffffffff1660e01b8152600401610bd1929190613446565b602060405180830381865afa158015610bee573d6000803e3d6000fd5b505050506040513d601f19601f82011682018060405250810190610c1291906137fa565b1015610c53576040517f08c379a0000000000000000000000000000000000000000000000000000000008152600401610c4a90613899565b60405180910390fd5b827f000000000000000000000000000000000000000000000000000000000000000073ffffffffffffffffffffffffffffffffffffffff166370a08231336040518263ffffffff1660e01b8152600401610cad9190612c9a565b602060405180830381865afa158015610cca573d6000803e3d6000fd5b505050506040513d601f19601f82011682018060405250810190610cee91906137fa565b1015610d2f576040517f08c379a0000000000000000000000000000000000000000000000000000000008152600401610d269061392b565b60405180910390fd5b85610d3a86896103c1565b1015610d7b576040517f08c379a0000000000000000000000000000000000000000000000000000000008152600401610d72906139bd565b60405180910390fd5b7f000000000000000000000000000000000000000000000000000000000000000073ffffffffffffffffffffffffffffffffffffffff166323b872dd3387846040518463ffffffff1660e01b8152600401610dd8939291906139dd565b6020604051808303816000875af1158015610df7573d6000803e3d6000fd5b505050506040513d601f19601f82011682018060405250810190610e1b9190613a29565b610e5a576040517f08c379a0000000000000000000000000000000000000000000000000000000008152600401610e5190613ac8565b60405180910390fd5b7f000000000000000000000000000000000000000000000000000000000000000073ffffffffffffffffffffffffffffffffffffffff166323b872dd33610e9f6109cb565b856040518463ffffffff1660e01b8152600401610ebe939291906139dd565b6020604051808303816000875af1158015610edd573d6000803e3d6000fd5b505050506040513d601f19601f82011682018060405250810190610f019190613a29565b610f40576040517f08c379a0000000000000000000000000000000000000000000000000000000008152600401610f3790613b5a565b60405180910390fd5b3073ffffffffffffffffffffffffffffffffffffffff1663f242432a86338a8a6040518563ffffffff1660e01b8152600401610f7f9493929190613bb1565b600060405180830381600087803b158015610f9957600080fd5b505af1158015610fad573d6000803e3d6000fd5b505050503373ffffffffffffffffffffffffffffffffffffffff168573ffffffffffffffffffffffffffffffffffffffff16887fb3e1ddb8199c3b90de039a351d4cfa9a0b5eb892ac5c50442a02d33733cba9b18988604051611011929190613593565b60405180910390a450505050505050565b60056020528060005260406000206000915090508060000180546110459061312a565b80601f01602080910402602001604051908101604052809291908181526020018280546110719061312a565b80156110be5780601f10611093576101008083540402835291602001916110be565b820191906000526020600020905b8154815290600101906020018083116110a157829003601f168201915b5050505050908060010180546110d39061312a565b80601f01602080910402602001604051908101604052809291908181526020018280546110ff9061312a565b801561114c5780601f106111215761010080835404028352916020019161114c565b820191906000526020600020905b81548152906001019060200180831161112f57829003601f168201915b5050505050908060020154908060030154905084565b60065481565b6000600160008473ffffffffffffffffffffffffffffffffffffffff1673ffffffffffffffffffffffffffffffffffffffff16815260200190815260200160002060008373ffffffffffffffffffffffffffffffffffffffff1673ffffffffffffffffffffffffffffffffffffffff16815260200190815260200160002060009054906101000a900460ff16905092915050565b7f000000000000000000000000000000000000000000000000000000000000000081565b600061122a61165c565b90508073ffffffffffffffffffffffffffffffffffffffff168673ffffffffffffffffffffffffffffffffffffffff161415801561126f575061126d8682611168565b155b156112b35780866040517fe237d9220000000000000000000000000000000000000000000000000000000081526004016112aa929190613446565b60405180910390fd5b6112c08686868686611a61565b505050505050565b6112d061153c565b600073ffffffffffffffffffffffffffffffffffffffff168173ffffffffffffffffffffffffffffffffffffffff16036113425760006040517f1e4fbdf70000000000000000000000000000000000000000000000000000000081526004016113399190612c9a565b60405180910390fd5b61134b8161182b565b50565b6060806000806000600560008781526020019081526020016000206040518060800160405290816000820180546113849061312a565b80601f01602080910402602001604051908101604052809291908181526020018280546113b09061312a565b80156113fd5780601f106113d2576101008083540402835291602001916113fd565b820191906000526020600020905b8154815290600101906020018083116113e057829003601f168201915b505050505081526020016001820180546114169061312a565b80601f01602080910402602001604051908101604052809291908181526020018280546114429061312a565b801561148f5780601f106114645761010080835404028352916020019161148f565b820191906000526020600020905b81548152906001019060200180831161147257829003601f168201915b5050505050815260200160028201548152602001600382015481525050905080600001518160200151826040015183606001519450945094509450509193509193565b60007f01ffc9a7000000000000000000000000000000000000000000000000000000007bffffffffffffffffffffffffffffffffffffffffffffffffffffffff1916827bffffffffffffffffffffffffffffffffffffffffffffffffffffffff1916149050919050565b61154461165c565b73ffffffffffffffffffffffffffffffffffffffff166115626109cb565b73ffffffffffffffffffffffffffffffffffffffff16146115c15761158561165c565b6040517f118cdaa70000000000000000000000000000000000000000000000000000000081526004016115b89190612c9a565b60405180910390fd5b565b600073ffffffffffffffffffffffffffffffffffffffff168473ffffffffffffffffffffffffffffffffffffffff16036116355760006040517f57f447ce00000000000000000000000000000000000000000000000000000000815260040161162c9190612c9a565b60405180910390fd5b6000806116428585611b6c565b91509150611654600087848487611b9c565b505050505050565b600033905090565b600073ffffffffffffffffffffffffffffffffffffffff168473ffffffffffffffffffffffffffffffffffffffff16036116d65760006040517f57f447ce0000000000000000000000000000000000000000000000000000000081526004016116cd9190612c9a565b60405180910390fd5b600073ffffffffffffffffffffffffffffffffffffffff168573ffffffffffffffffffffffffffffffffffffffff16036117485760006040517f01a8351400000000000000000000000000000000000000000000000000000000815260040161173f9190612c9a565b60405180910390fd5b6117558585858585611b9c565b5050505050565b600073ffffffffffffffffffffffffffffffffffffffff168373ffffffffffffffffffffffffffffffffffffffff16036117ce5760006040517f01a835140000000000000000000000000000000000000000000000000000000081526004016117c59190612c9a565b60405180910390fd5b6000806117db8484611b6c565b915091506117fc856000848460405180602001604052806000815250611b9c565b5050505050565b600060208202602084010151905092915050565b600060208202602084010151905092915050565b6000600360009054906101000a900473ffffffffffffffffffffffffffffffffffffffff16905081600360006101000a81548173ffffffffffffffffffffffffffffffffffffffff021916908373ffffffffffffffffffffffffffffffffffffffff1602179055508173ffffffffffffffffffffffffffffffffffffffff168173ffffffffffffffffffffffffffffffffffffffff167f8be0079c531659141344cd1fd0a4f28419497f9722a3daafe3b4186f6b6457e060405160405180910390a35050565b600073ffffffffffffffffffffffffffffffffffffffff168273ffffffffffffffffffffffffffffffffffffffff16036119635760006040517fced3e10000000000000000000000000000000000000000000000000000000000815260040161195a9190612c9a565b60405180910390fd5b80600160008573ffffffffffffffffffffffffffffffffffffffff1673ffffffffffffffffffffffffffffffffffffffff16815260200190815260200160002060008473ffffffffffffffffffffffffffffffffffffffff1673ffffffffffffffffffffffffffffffffffffffff16815260200190815260200160002060006101000a81548160ff0219169083151502179055508173ffffffffffffffffffffffffffffffffffffffff168373ffffffffffffffffffffffffffffffffffffffff167f17307eab39ab6107e8899845ad3d59bd9653f200f220920489ca2b5937696c3183604051611a549190612516565b60405180910390a3505050565b600073ffffffffffffffffffffffffffffffffffffffff168473ffffffffffffffffffffffffffffffffffffffff1603611ad35760006040517f57f447ce000000000000000000000000000000000000000000000000000000008152600401611aca9190612c9a565b60405180910390fd5b600073ffffffffffffffffffffffffffffffffffffffff168573ffffffffffffffffffffffffffffffffffffffff1603611b455760006040517f01a83514000000000000000000000000000000000000000000000000000000008152600401611b3c9190612c9a565b60405180910390fd5b600080611b528585611b6c565b91509150611b638787848487611b9c565b50505050505050565b60608060405191506001825283602083015260408201905060018152826020820152604081016040529250929050565b611ba885858585611c4e565b600073ffffffffffffffffffffffffffffffffffffffff168473ffffffffffffffffffffffffffffffffffffffff1614611c47576000611be661165c565b90506001845103611c36576000611c0760008661181790919063ffffffff16565b90506000611c1f60008661181790919063ffffffff16565b9050611c2f838989858589611ffc565b5050611c45565b611c448187878787876121b0565b5b505b5050505050565b8051825114611c9857815181516040517f5b059991000000000000000000000000000000000000000000000000000000008152600401611c8f929190613593565b60405180910390fd5b6000611ca261165c565b905060005b8351811015611eb7576000611cc5828661181790919063ffffffff16565b90506000611cdc838661181790919063ffffffff16565b9050600073ffffffffffffffffffffffffffffffffffffffff168873ffffffffffffffffffffffffffffffffffffffff1614611e0957600080600084815260200190815260200160002060008a73ffffffffffffffffffffffffffffffffffffffff1673ffffffffffffffffffffffffffffffffffffffff16815260200190815260200160002054905081811015611db157888183856040517f03dee4c5000000000000000000000000000000000000000000000000000000008152600401611da89493929190613c09565b60405180910390fd5b81810360008085815260200190815260200160002060008b73ffffffffffffffffffffffffffffffffffffffff1673ffffffffffffffffffffffffffffffffffffffff16815260200190815260200160002081905550505b600073ffffffffffffffffffffffffffffffffffffffff168773ffffffffffffffffffffffffffffffffffffffff1614611ea4578060008084815260200190815260200160002060008973ffffffffffffffffffffffffffffffffffffffff1673ffffffffffffffffffffffffffffffffffffffff1681526020019081526020016000206000828254611e9c9190613c4e565b925050819055505b505080611eb0906133fe565b9050611ca7565b506001835103611f76576000611ed760008561181790919063ffffffff16565b90506000611eef60008561181790919063ffffffff16565b90508573ffffffffffffffffffffffffffffffffffffffff168773ffffffffffffffffffffffffffffffffffffffff168473ffffffffffffffffffffffffffffffffffffffff167fc3d58168c5ae7397731d063d5bbf3d657854427343f4c083240f7aacaa2d0f628585604051611f67929190613593565b60405180910390a45050611ff5565b8373ffffffffffffffffffffffffffffffffffffffff168573ffffffffffffffffffffffffffffffffffffffff168273ffffffffffffffffffffffffffffffffffffffff167f4a39dc06d4c0dbc64b70af90fd698a233a518aa5d07e595d983b8c0526c8f7fb8686604051611fec929190613c82565b60405180910390a45b5050505050565b60008473ffffffffffffffffffffffffffffffffffffffff163b11156121a8578373ffffffffffffffffffffffffffffffffffffffff1663f23a6e6187878686866040518663ffffffff1660e01b815260040161205d959493929190613cfd565b6020604051808303816000875af192505050801561209957506040513d601f19601f820116820180604052508101906120969190613d6c565b60015b61211d573d80600081146120c9576040519150601f19603f3d011682016040523d82523d6000602084013e6120ce565b606091505b50600081510361211557846040517f57f447ce00000000000000000000000000000000000000000000000000000000815260040161210c9190612c9a565b60405180910390fd5b805181602001fd5b63f23a6e6160e01b7bffffffffffffffffffffffffffffffffffffffffffffffffffffffff1916817bffffffffffffffffffffffffffffffffffffffffffffffffffffffff1916146121a657846040517f57f447ce00000000000000000000000000000000000000000000000000000000815260040161219d9190612c9a565b60405180910390fd5b505b505050505050565b60008473ffffffffffffffffffffffffffffffffffffffff163b111561235c578373ffffffffffffffffffffffffffffffffffffffff1663bc197c8187878686866040518663ffffffff1660e01b8152600401612211959493929190613d99565b6020604051808303816000875af192505050801561224d57506040513d601f19601f8201168201806040525081019061224a9190613d6c565b60015b6122d1573d806000811461227d576040519150601f19603f3d011682016040523d82523d6000602084013e612282565b606091505b5060008151036122c957846040517f57f447ce0000000000000000000000000000000000000000000000000000000081526004016122c09190612c9a565b60405180910390fd5b805181602001fd5b63bc197c8160e01b7bffffffffffffffffffffffffffffffffffffffffffffffffffffffff1916817bffffffffffffffffffffffffffffffffffffffffffffffffffffffff19161461235a57846040517f57f447ce0000000000000000000000000000000000000000000000000000000081526004016123519190612c9a565b60405180910390fd5b505b505050505050565b6000604051905090565b600080fd5b600080fd5b600073ffffffffffffffffffffffffffffffffffffffff82169050919050565b60006123a382612378565b9050919050565b6123b381612398565b81146123be57600080fd5b50565b6000813590506123d0816123aa565b92915050565b6000819050919050565b6123e9816123d6565b81146123f457600080fd5b50565b600081359050612406816123e0565b92915050565b600080604083850312156124235761242261236e565b5b6000612431858286016123c1565b9250506020612442858286016123f7565b9150509250929050565b612455816123d6565b82525050565b6000602082019050612470600083018461244c565b92915050565b60007fffffffff0000000000000000000000000000000000000000000000000000000082169050919050565b6124ab81612476565b81146124b657600080fd5b50565b6000813590506124c8816124a2565b92915050565b6000602082840312156124e4576124e361236e565b5b60006124f2848285016124b9565b91505092915050565b60008115159050919050565b612510816124fb565b82525050565b600060208201905061252b6000830184612507565b92915050565b600080fd5b600080fd5b6000601f19601f8301169050919050565b7f4e487b7100000000000000000000000000000000000000000000000000000000600052604160045260246000fd5b6125848261253b565b810181811067ffffffffffffffff821117156125a3576125a261254c565b5b80604052505050565b60006125b6612364565b90506125c2828261257b565b919050565b600067ffffffffffffffff8211156125e2576125e161254c565b5b6125eb8261253b565b9050602081019050919050565b82818337600083830152505050565b600061261a612615846125c7565b6125ac565b90508281526020810184848401111561263657612635612536565b5b6126418482856125f8565b509392505050565b600082601f83011261265e5761265d612531565b5b813561266e848260208601612607565b91505092915050565b600080600080600060a086880312156126935761269261236e565b5b600086013567ffffffffffffffff8111156126b1576126b0612373565b5b6126bd88828901612649565b955050602086013567ffffffffffffffff8111156126de576126dd612373565b5b6126ea88828901612649565b94505060406126fb888289016123f7565b935050606061270c888289016123f7565b925050608061271d888289016123c1565b9150509295509295909350565b6000602082840312156127405761273f61236e565b5b600061274e848285016123f7565b91505092915050565b600081519050919050565b600082825260208201905092915050565b60005b83811015612791578082015181840152602081019050612776565b60008484015250505050565b60006127a882612757565b6127b28185612762565b93506127c2818560208601612773565b6127cb8161253b565b840191505092915050565b600060208201905081810360008301526127f0818461279d565b905092915050565b600067ffffffffffffffff8211156128135761281261254c565b5b602082029050602081019050919050565b600080fd5b600061283c612837846127f8565b6125ac565b9050808382526020820190506020840283018581111561285f5761285e612824565b5b835b81811015612888578061287488826123f7565b845260208401935050602081019050612861565b5050509392505050565b600082601f8301126128a7576128a6612531565b5b81356128b7848260208601612829565b91505092915050565b600067ffffffffffffffff8211156128db576128da61254c565b5b6128e48261253b565b9050602081019050919050565b60006129046128ff846128c0565b6125ac565b9050828152602081018484840111156129205761291f612536565b5b61292b8482856125f8565b509392505050565b600082601f83011261294857612947612531565b5b81356129588482602086016128f1565b91505092915050565b600080600080600060a0868803121561297d5761297c61236e565b5b600061298b888289016123c1565b955050602061299c888289016123c1565b945050604086013567ffffffffffffffff8111156129bd576129bc612373565b5b6129c988828901612892565b935050606086013567ffffffffffffffff8111156129ea576129e9612373565b5b6129f688828901612892565b925050608086013567ffffffffffffffff811115612a1757612a16612373565b5b612a2388828901612933565b9150509295509295909350565b60008060408385031215612a4757612a4661236e565b5b6000612a55858286016123f7565b9250506020612a66858286016123f7565b9150509250929050565b600067ffffffffffffffff821115612a8b57612a8a61254c565b5b602082029050602081019050919050565b6000612aaf612aaa84612a70565b6125ac565b90508083825260208201905060208402830185811115612ad257612ad1612824565b5b835b81811015612afb5780612ae788826123c1565b845260208401935050602081019050612ad4565b5050509392505050565b600082601f830112612b1a57612b19612531565b5b8135612b2a848260208601612a9c565b91505092915050565b60008060408385031215612b4a57612b4961236e565b5b600083013567ffffffffffffffff811115612b6857612b67612373565b5b612b7485828601612b05565b925050602083013567ffffffffffffffff811115612b9557612b94612373565b5b612ba185828601612892565b9150509250929050565b600081519050919050565b600082825260208201905092915050565b6000819050602082019050919050565b612be0816123d6565b82525050565b6000612bf28383612bd7565b60208301905092915050565b6000602082019050919050565b6000612c1682612bab565b612c208185612bb6565b9350612c2b83612bc7565b8060005b83811015612c5c578151612c438882612be6565b9750612c4e83612bfe565b925050600181019050612c2f565b5085935050505092915050565b60006020820190508181036000830152612c838184612c0b565b905092915050565b612c9481612398565b82525050565b6000602082019050612caf6000830184612c8b565b92915050565b612cbe816124fb565b8114612cc957600080fd5b50565b600081359050612cdb81612cb5565b92915050565b60008060408385031215612cf857612cf761236e565b5b6000612d06858286016123c1565b9250506020612d1785828601612ccc565b9150509250929050565b600080600060608486031215612d3a57612d3961236e565b5b6000612d48868287016123f7565b9350506020612d59868287016123f7565b9250506040612d6a868287016123c1565b9150509250925092565b60006080820190508181036000830152612d8e818761279d565b90508181036020830152612da2818661279d565b9050612db1604083018561244c565b612dbe606083018461244c565b95945050505050565b60008060408385031215612dde57612ddd61236e565b5b6000612dec858286016123c1565b9250506020612dfd858286016123c1565b9150509250929050565b6000819050919050565b6000612e2c612e27612e2284612378565b612e07565b612378565b9050919050565b6000612e3e82612e11565b9050919050565b6000612e5082612e33565b9050919050565b612e6081612e45565b82525050565b6000602082019050612e7b6000830184612e57565b92915050565b600080600080600060a08688031215612e9d57612e9c61236e565b5b6000612eab888289016123c1565b9550506020612ebc888289016123c1565b9450506040612ecd888289016123f7565b9350506060612ede888289016123f7565b925050608086013567ffffffffffffffff811115612eff57612efe612373565b5b612f0b88828901612933565b9150509295509295909350565b600060208284031215612f2e57612f2d61236e565b5b6000612f3c848285016123c1565b91505092915050565b7f436172626f6e4372656469743a20496e697469616c20737570706c79206d757360008201527f742062652067726561746572207468616e207a65726f00000000000000000000602082015250565b6000612fa1603683612762565b9150612fac82612f45565b604082019050919050565b60006020820190508181036000830152612fd081612f94565b9050919050565b7f436172626f6e4372656469743a20496e76616c6964206164647265737320746f60008201527f206d696e7420746f000000000000000000000000000000000000000000000000602082015250565b6000613033602883612762565b915061303e82612fd7565b604082019050919050565b6000602082019050818103600083015261306281613026565b9050919050565b7f436172626f6e4372656469743a2050726963652070657220746f6e206d75737460008201527f2062652067726561746572207468616e207a65726f0000000000000000000000602082015250565b60006130c5603583612762565b91506130d082613069565b604082019050919050565b600060208201905081810360008301526130f4816130b8565b9050919050565b7f4e487b7100000000000000000000000000000000000000000000000000000000600052602260045260246000fd5b6000600282049050600182168061314257607f821691505b602082108103613155576131546130fb565b5b50919050565b60008190508160005260206000209050919050565b60006020601f8301049050919050565b600082821b905092915050565b6000600883026131bd7fffffffffffffffffffffffffffffffffffffffffffffffffffffffffffffffff82613180565b6131c78683613180565b95508019841693508086168417925050509392505050565b60006131fa6131f56131f0846123d6565b612e07565b6123d6565b9050919050565b6000819050919050565b613214836131df565b61322861322082613201565b84845461318d565b825550505050565b600090565b61323d613230565b61324881848461320b565b505050565b5b8181101561326c57613261600082613235565b60018101905061324e565b5050565b601f8211156132b1576132828161315b565b61328b84613170565b8101602085101561329a578190505b6132ae6132a685613170565b83018261324d565b50505b505050565b600082821c905092915050565b60006132d4600019846008026132b6565b1980831691505092915050565b60006132ed83836132c3565b9150826002028217905092915050565b61330682612757565b67ffffffffffffffff81111561331f5761331e61254c565b5b613329825461312a565b613334828285613270565b600060209050601f8311600181146133675760008415613355578287015190505b61335f85826132e1565b8655506133c7565b601f1984166133758661315b565b60005b8281101561339d57848901518255600182019150602085019450602081019050613378565b868310156133ba57848901516133b6601f8916826132c3565b8355505b6001600288020188555050505b505050505050565b7f4e487b7100000000000000000000000000000000000000000000000000000000600052601160045260246000fd5b6000613409826123d6565b91507fffffffffffffffffffffffffffffffffffffffffffffffffffffffffffffffff820361343b5761343a6133cf565b5b600182019050919050565b600060408201905061345b6000830185612c8b565b6134686020830184612c8b565b9392505050565b7f436172626f6e4372656469743a20416d6f756e74206d7573742062652067726560008201527f61746572207468616e207a65726f000000000000000000000000000000000000602082015250565b60006134cb602e83612762565b91506134d68261346f565b604082019050919050565b600060208201905081810360008301526134fa816134be565b9050919050565b7f436172626f6e4372656469743a20496e73756666696369656e7420637265646960008201527f747320746f207265746972650000000000000000000000000000000000000000602082015250565b600061355d602c83612762565b915061356882613501565b604082019050919050565b6000602082019050818103600083015261358c81613550565b9050919050565b60006040820190506135a8600083018561244c565b6135b5602083018461244c565b9392505050565b7f4e487b7100000000000000000000000000000000000000000000000000000000600052603260045260246000fd5b7f436172626f6e4372656469743a20496e76616c69642073656c6c65722061646460008201527f7265737300000000000000000000000000000000000000000000000000000000602082015250565b6000613647602483612762565b9150613652826135eb565b604082019050919050565b600060208201905081810360008301526136768161363a565b9050919050565b7f436172626f6e4372656469743a2050726f6a65637420646f6573206e6f74206560008201527f7869737400000000000000000000000000000000000000000000000000000000602082015250565b60006136d9602483612762565b91506136e48261367d565b604082019050919050565b60006020820190508181036000830152613708816136cc565b9050919050565b600061371a826123d6565b9150613725836123d6565b9250828202613733816123d6565b9150828204841483151761374a576137496133cf565b5b5092915050565b7f4e487b7100000000000000000000000000000000000000000000000000000000600052601260045260246000fd5b600061378b826123d6565b9150613796836123d6565b9250826137a6576137a5613751565b5b828204905092915050565b60006137bc826123d6565b91506137c7836123d6565b92508282039050818111156137df576137de6133cf565b5b92915050565b6000815190506137f4816123e0565b92915050565b6000602082840312156138105761380f61236e565b5b600061381e848285016137e5565b91505092915050565b7f436172626f6e4372656469743a20496e73756666696369656e7420555344432060008201527f616c6c6f77616e63650000000000000000000000000000000000000000000000602082015250565b6000613883602983612762565b915061388e82613827565b604082019050919050565b600060208201905081810360008301526138b281613876565b9050919050565b7f436172626f6e4372656469743a20496e73756666696369656e7420555344432060008201527f62616c616e636500000000000000000000000000000000000000000000000000602082015250565b6000613915602783612762565b9150613920826138b9565b604082019050919050565b6000602082019050818103600083015261394481613908565b9050919050565b7f436172626f6e4372656469743a2053656c6c65722068617320696e737566666960008201527f6369656e74206372656469747300000000000000000000000000000000000000602082015250565b60006139a7602d83612762565b91506139b28261394b565b604082019050919050565b600060208201905081810360008301526139d68161399a565b9050919050565b60006060820190506139f26000830186612c8b565b6139ff6020830185612c8b565b613a0c604083018461244c565b949350505050565b600081519050613a2381612cb5565b92915050565b600060208284031215613a3f57613a3e61236e565b5b6000613a4d84828501613a14565b91505092915050565b7f436172626f6e4372656469743a2055534443207472616e7366657220746f207360008201527f656c6c6572206661696c65640000000000000000000000000000000000000000602082015250565b6000613ab2602c83612762565b9150613abd82613a56565b604082019050919050565b60006020820190508181036000830152613ae181613aa5565b9050919050565b7f436172626f6e4372656469743a205553444320666565207472616e736665722060008201527f6661696c65640000000000000000000000000000000000000000000000000000602082015250565b6000613b44602683612762565b9150613b4f82613ae8565b604082019050919050565b60006020820190508181036000830152613b7381613b37565b9050919050565b600082825260208201905092915050565b50565b6000613b9b600083613b7a565b9150613ba682613b8b565b600082019050919050565b600060a082019050613bc66000830187612c8b565b613bd36020830186612c8b565b613be0604083018561244c565b613bed606083018461244c565b8181036080830152613bfe81613b8e565b905095945050505050565b6000608082019050613c1e6000830187612c8b565b613c2b602083018661244c565b613c38604083018561244c565b613c45606083018461244c565b95945050505050565b6000613c59826123d6565b9150613c64836123d6565b9250828201905080821115613c7c57613c7b6133cf565b5b92915050565b60006040820190508181036000830152613c9c8185612c0b565b90508181036020830152613cb08184612c0b565b90509392505050565b600081519050919050565b6000613ccf82613cb9565b613cd98185613b7a565b9350613ce9818560208601612773565b613cf28161253b565b840191505092915050565b600060a082019050613d126000830188612c8b565b613d1f6020830187612c8b565b613d2c604083018661244c565b613d39606083018561244c565b8181036080830152613d4b8184613cc4565b90509695505050505050565b600081519050613d66816124a2565b92915050565b600060208284031215613d8257613d8161236e565b5b6000613d9084828501613d57565b91505092915050565b600060a082019050613dae6000830188612c8b565b613dbb6020830187612c8b565b8181036040830152613dcd8186612c0b565b90508181036060830152613de18185612c0b565b90508181036080830152613df58184613cc4565b9050969550505050505056fe68747470733a2f2f6170692e62617365636172626f6e63616e6f70792e6578616d706c652f6d657461646174612f7b69647d2e6a736f6ea26469706673582212204a9fc01a485e21d8cc6b64d6b016fd51e7ce48f93c8218831d0095c42d518ef964736f6c63430008140033",
  "linkReferences": {},
  "deployedLinkReferences": {}
}